:100000000C9446000C9465000C9465000C946500FB
:100010000C9465000C9465000C9465000C946500CC
:100020000C9465000C9465000C9465000C946500BC
:100030000C9465000C9465000C9465000C946500AC
:100040000C9465000C9465000C9465000C9465009C
:100050000C9465000C9465000C9465000C9465008C
:100060000C9465000C9465000C9465000C9465007C
:100070000C9465000C9465000C9465000C9465006C
:100080000C9465000C9465000C94650011241FBE4F
:10009000CFEFD0E4DEBFCDBF11E0A0E0B1E0E8E3F8
:1000A000F2E000E00BBF02C007900D92A031B10753
:1000B000D9F711E0A0E1B1E001C01D92A231B10772
:1000C000E1F70E9408010C941A010C940000CF93F0
:1000D000C82F8A3019F48DE00E9467009091C0000B
:1000E00095FFFCCFC093C60080E090E0CF910895CB
:1000F00080911001909111018230910509F44CC05A
:1001000028F4009761F0019789F05BC08430910575
:1001100009F450C008F447C0059749F152C081E086
:1001200090E090931101809310014FC080B190E056
:100130008095909583709927039739F484E090E037
:10014000909311018093100140C0019907C083E092
:1001500090E0909311018093100137C0009935C051
:1001600082E090E090931101809310012EC080B145
:100170008F3F39F481E090E090931101809310015A
:1001800024C080B190E08095909583709927039763
:10019000E1F41092000119C085E090E09093110104
:1001A0008093100112C085E090E09093110180933C
:1001B00010010BC085E090E0909311018093100135
:1001C00004C01092110110921001809110019091C1
:1001D00011018330910579F084309105B1F00297D7
:1001E000B1F480910001893090F4809100018F5F1B
:1001F00080930001089580910001882341F080914F
:10020000000181508093000108951092000108952B
:1002100011B88FEF82B987B918B8109211011092F6
:10022000100187E0809300010E9478008091000116
:0802300088B9FACFF894FFCF62
:100238000700000002000000006700000000000046
:00000001FF
